:020000040800F2
:10000000A004002049010008ED140008691200084E
:10001000CD130008B5010008C11900080000000058
:10002000000000000000000000000000F1140008C3
:10003000B701000800000000EF140008F3140008E6
:100040006301000863010008630100086301000800
:1000500063010008630100086301000863010008F0
:1000600063010008630100086301000863010008E0
:1000700063010008630100086301000863010008D0
:1000800063010008630100086301000863010008C0
:1000900063010008630100086301000863010008B0
:1000A00063010008630100086301000863010008A0
:1000B0006301000863010008630100086301000890
:1000C0006301000863010008630100086301000880
:1000D00063010008B5190008630100086301000806
:1000E0006301000863010008630100086301000860
:1000F0006301000863010008630100086301000850
:10010000630100086301000863010008630100083F
:10011000630100086301000863010008630100082F
:10012000630100086301000863010008630100081F
:10013000DFF810D000F02CF800480047691A0008DA
:10014000AFF30080A004002006488047064800471F
:10015000FEE7FEE7FEE7FEE7FEE7FEE7FEE7FEE777
:10016000FEE7FEE74515000831010008D2B201E0C4
:1001700000F8012B491EFBD270470022F6E710B5AC
:1001800013460A4604461946FFF7F0FF204610BD05
:10019000064C074D06E0E06840F0010394E80700D4
:1001A00098471034AC42F6D3FFF7C6FFA01B0008F7
:1001B000C01B0008FEE77047704700002DE9F05FA4
:1001C00090F821100024022903D004218163012426
:1001D00085E001680A6822F00E020A6001680A6878
:1001E00022F001020A603F4E3E4FB215DFF8F4C024
:1001F000DFF8F090DFF8ECA0DFF8E8B0DFF8E4E03B
:100200000168783F13011502ACF1640CA9F15009A3
:10021000AAF13C0AABF1280BAEF1140E4FF4801892
:10022000B14227D9B9420ED0614512D049451DD0FF
:10023000514518D0594518D0714501D1424615E0B5
:10024000294EB14201D1012210E0274E1436B142AD
:1002500001D110220AE0244E2836B14206D0224AAB
:100260003C32914201D11A4600E02A461E49091F3C
:100270000A602BE0B94213D0614517D0494522D01E
:1002800051451DD059451DD0714501D142461AE056
:10029000B14202D14FF0807215E0134EB14201D14C
:1002A000012210E0104E1436B14201D110220AE0B2
:1002B0000D4E2836B14206D00B4A3C32914201D154
:1002C0001A4600E02A46074980394A60012180F831
:1002D0002110002180F82010416B01B18847204691
:1002E000BDE8F09F800002400804024070B504465B
:1002F00000F010F90546601C02D004480078044460
:1003000000F008F9401BA042FAD370BD00000020A5
:100310002DE9F84FDFF8C891002409F1040A0AF129
:10032000040B23460F270BF1040ED1E00125A54055
:1003300006EA0502AA4276D1DFF8A8C14E68A6EB0C
:100340000C0866452BD00DDC032E34D005DC36B30B
:10035000012E19D0022E2FD11BE0112E16D0122EF5
:100360002AD119E0B8F5881F19D006DCB8F5803F0E
:1003700015D0B8F5801F1FD111E0B8F5001F0ED0C1
:10038000B8F5041F18D10AE0CB6815E0CB681B1D37
:1003900012E0CB6808330FE0CB680C330CE08B68BD
:1003A0002BB1012B4FF0080303D0456104E0042377
:1003B00002E0056100E00023FF2A01D8064601E0C3
:1003C00000F104064FEA840501D9A5F12005D6F80D
:1003D000008007FA05FC28EA0C0803FA05F548EA4C
:1003E0000508C6F800804D68ED0070D53E4DAE6939
:1003F00046F00106AE61AD6924F0030605F0010583
:1004000000953A4D06EB050CDCF80850A607360FB0
:1004100007FA06F825EA0805DFF8D480404503D13D
:100420004FF0000825E052E0DFF8C880404502D1D7
:100430004FF001081DE0DFF8C080404502D14FF0C9
:10044000020816E0DFF8B480404502D14FF00308FF
:100450000FE0DFF8AC80404502D14FF0040808E01F
:10046000DFF8A080404502D14FF0050801E04FF0D1
:10047000060808FA06F848EA0508CCF808804D682E
:10048000D9F80060ED034D4601D5164300E09643D0
:100490002E604D68DAF80060AD03554601D516436D
:1004A00000E096432E604D68DBF80060ED025D468B
:1004B00001D5164300E096432E604D68DEF80060DB
:1004C000AD02754601D5164300E096432E60641CCC
:1004D0000A681646E2407FF429AFBDE8F88F0000B5
:1004E0000004014000001110001002400000014013
:1004F00000080140000C01400010014000140140C0
:1005000000180140001C01400AB101617047090454
:10051000FBE70000014880687047000000000020F1
:100520000248816802781144816070470000002011
:10053000074810B5016841F010010160032000F088
:1005400075F8002000F006F800F024F8002010BD37
:100550000020024070B50D4D04464FF47A712878A2
:10056000B1FBF0F00A490968B1FBF0F000F0ECFAD9
:1005700048B9102C07D200222146501E00F036F850
:1005800000206C6070BD012070BD000000000020E4
:100590000C0000200C4808B5816941F0010181611F
:1005A000816901F001010091C16941F08051C1618F
:1005B000C06900F0805000900448416821F0E0617B
:1005C00041F00071416008BD001002400000014090
:1005D000002809DB00F01F02012191404009800042
:1005E00000F1E020C0F8001170470000F0B40E4B9D
:1005F0001B680C46C3F30223C3F10705042D00D981
:100600000425191D072901D2002300E0DB1E012665
:1006100006FA05F1491E214099409E40761E16407B
:100620003143F0BC01F0DEB90CED00E0064900F00A
:10063000070208684FF6FF03184040EA0220034A09
:1006400010430860704700000CED00E00000FA0560
:100650002DE9F0470F46050061D0434E306800F0A9
:100660000700B84209D2306820F0070038433060F4
:10067000306800F00700B84251D128683B4C810730
:1006800012D5400703D5606840F4E06060602878C8
:10069000000703D5606840F4605060606068A96836
:1006A00020F0F000084360602878C00728D0686810
:1006B000012810D02168022810D0890700292EDADD
:1006C000616821F0030101436160FFF723FF804669
:1006D00041F288390DE021688903EFE78901EDE7F0
:1006E000FFF718FFA0EB0801494502D90320BDE838
:1006F000F0876068696800F00C00B0EB810FEFD103
:10070000306800F00700B8420BD9306820F00700CD
:1007100038433060306800F00700B84201D0012053
:10072000E5E72878400705D56068E96820F4E060CF
:10073000084360602878000706D56068296920F4BE
:10074000605040EAC100606000F038F86168084A13
:10075000C1F30311515CC8400649086006480068AF
:10076000FFF7F8FE0020C2E7002002400010024020
:10077000881B00080C0000200400002004480549E4
:1007800000684968044AC1F30221515CC8407047BF
:100790000C00002000100240981B00080448054986
:1007A00000684968044AC1F3C221515CC8407047DF
:1007B0000C00002000100240981B000812A185B018
:1007C0000FC98DE80F0014A0144A00680490516806
:1007D000134801F00C03042B10D0082B0ED1C1F3E9
:1007E0008343C9031DF803000AD5516804AAC1F365
:1007F0004041515C0A4A5043B0FBF1F005B07047EC
:1008000008494843FAE700000203040506070809FF
:100810000A0B0C0D0E0F1010010200000010024018
:1008200000127A0000093D002DE9F84F040070D055
:100830002078C04DC00749D06868C0F38100012806
:1008400007D06868C0F38100022809D16868C00336
:1008500006D52868800339D560680028E7D035E0E0
:100860006068B0F5803F0BD010B1B0F5A02F11D06B
:10087000286820F480302860286820F4802002E076
:10088000286840F480302860606890B1FFF742FE2D
:1008900006460AE0286840F480202860F0E700BFA0
:1008A000FFF738FE801B642873D828688003F7D5CB
:1008B0000CE0FFF72FFE064605E000BFFFF72AFE1B
:1008C000801B6428F0D828688003F7D420789A4EDB
:1008D00080074FF001094FF0000839D5686810F023
:1008E0000C0F07D06868C0F38100022809D168683E
:1008F000C00306D42868800714D52069012808D1D0
:1009000010E02069B0B1C6F80090FFF703FE07467B
:1009100005E00AE1FFF7FEFDC01B0228C4D82868E5
:100920008007F7D52868616920F0F80040EAC10027
:1009300028600DE0C6F80080FFF7ECFD074604E0F4
:10094000FFF7E8FDC01B022823D828688007F7D4EA
:10095000207800072CD57948A169D9B1C0F800905A
:10096000FFF7D8FD074604E0FFF7D4FDC01B0228BF
:100970000FD8686A8007F7D571484FF4FA510068BC
:10098000B0FBF1F0009000BF0098411E0091FAD238
:100990000EE080E0C0F80080FFF7BCFD074604E0F1
:1009A000FFF7B8FDC01B022875D8686A8007F7D426
:1009B0002078400760D5E8690027C00008D4E869BE
:1009C00040F08050E861E869012700F08050009015
:1009D0005C480168C90513D40168834641F48071FD
:1009E0000160FFF797FD824606E000BFFFF792FD2A
:1009F000A0EB0A0064284ED8DBF80000C005F5D54E
:100A0000E06801280AD008B1052813D0286A20F030
:100A100001002862286A20F0040002E0286A40F001
:100A200001002862E06841F2883B98B1FFF772FD4F
:100A300082460BE0286A40F004002862EEE700BF1F
:100A4000FFF768FDA0EB0A0159455AD8286A8007CC
:100A5000F6D50CE0FFF75EFD824605E0FFF75AFD94
:100A6000A0EB0A0159454CD8286A8007F6D41FB17B
:100A7000E86920F08050E861E06988B36968C1F3F3
:100A80008101022944D00228C6F8608004D0FFF713
:100A900041FD044638E034E0FFF73CFD074604E042
:100AA000FFF738FDC01B02282BD828688001F7D437
:100AB000206AB0F5803F05D16868A16820F4003055
:100AC00008436860D4E908010843696821F4741197
:100AD00008436860C6F86090FFF71CFD044606E016
:100AE00025E000BFFFF716FD001B022809D8286883
:100AF0008001F7D51BE000BFFFF70CFD001B0228AB
:100B000002D90320BDE8F88F28688001F4D40EE0F4
:100B10000128F7D06868226A00F48031914204D13C
:100B2000616A00F47010884201D00120EAE70020D9
:100B3000E8E7000000100240000042428004424208
:100B40000C0000200070004010B5401EB0F1807F06
:100B500001D3012010BD4FF0E02460610F21601728
:100B600000F040FF0020A06107202061002010BDA0
:100B700070B590F83C20012A2CD0012480F83C402C
:100B8000022280F83D2003685A689D6822F07006B2
:100B90000A6832435A60104B02689A420ED00F4BDB
:100BA0009A420BD0B2F1804F08D00D4B9A4205D03B
:100BB0000C4B9A4202D00C4B9A4204D1496825F062
:100BC00080031943916080F83D40002180F83C107B
:100BD000084670BD022070BD002C01400034014069
:100BE0000004004000080040000C004010B5040064
:100BF00003D094F83D0010B107E0012010BD0020A3
:100C000084F83C00204600F01FF8022084F83D00E4
:100C1000211D206800F098FC012084F8460084F82B
:100C20003E0084F83F0084F8400084F8410084F8D6
:100C3000420084F8430084F8440084F8450084F8B6
:100C40003D00002010BD000008B50068064988423C
:100C500008D10648C16941F00401C161C06900F0D2
:100C60000400009008BD0000000800400010024091
:100C700070B5044690F83C00012817D0012584F88F
:100C80003C50022084F83D002068826822F0770200
:100C900022F47F4282600868502830D00DDC202882
:100CA0004DD005DC98B310283BD148E0022070BD40
:100CB000302844D0402834D139E0602828D070282A
:100CC00006D0B0F5805F2CD0B0F5005F29D10AE0E6
:100CD000CB68D1E90121206800F089FC2068816897
:100CE00041F0770109E0CB68D1E90121206800F0EB
:100CF0007EFC2068816841F48041816011E0CA680F
:100D00004968206800F048FD5021206807E016E09F
:100D1000CA684968206800F050FD6021206800F032
:100D200070FC84F83D50002084F83C0070BDCA6817
:100D30004968206800F030FD40212068EFE7226814
:100D400001461046EBE7000000B585B00021009198
:100D500001910291039100680B49884212D10B481E
:100D6000816941F0080181618069694600F00800ED
:100D700004904FF4407000900220019003900448CA
:100D8000FFF7C6FA05B000BD0008004000100240A1
:100D9000000C014070B5044690F83C000D46012857
:100DA0000AD0012084F83C0042B1042A18D0082A55
:100DB0002AD00C2A4DD139E0022070BD206800F005
:100DC00029FC2068816941F00801816120688169FE
:100DD00021F004018161206881692A69114311E0D1
:100DE000206800F047FC2068816941F4006181615E
:100DF0002068816921F480618161206881692A69A4
:100E000041EA0221816124E0206800F069FC206849
:100E1000C16941F00801C1612068C16921F0040184
:100E2000C1612068C1692A69114311E0206800F09E
:100E30008BFC2068C16941F40061C1612068C1690F
:100E400021F48061C1612068C1692A6941EA0221F7
:100E5000C161002084F83C0070BD10B5040003D0CF
:100E600094F83D0010B107E0012010BD002084F887
:100E70003C00204600F01EF8022084F83D00211DB1
:100E8000206800F061FB012084F8460084F83E00F1
:100E900084F83F0084F8400084F8410084F8420060
:100EA00084F8430084F8440084F8450084F83D0049
:100EB000002010BD7047000010B50446022249B161
:100EC00004290ED0082913D094F84100012816D027
:100ED000012010BD94F83E000128F9D184F83E208D
:100EE0000FE094F83F000128F2D184F83F2008E099
:100EF00094F840000128EBD184F8402001E084F808
:100F000041200122206800F065FB13492068134A44
:100F1000884201D0904203D1436C43F400434364C0
:100F2000206888420DD090420BD0B0F1804F08D09D
:100F30000B49884205D00B49884202D00A498842B1
:100F400004D1816801F00701062903D0016841F04E
:100F500001010160002010BD002C0140003401405F
:100F60000004004000080040000C004070470000F2
:100F700070B5026804461068D168536910F00F0F0D
:100F800052D003F0010501F490762E435FD0C207E2
:100F900005D0CA0503D5E26B42F00102E2634207C5
:100FA00005D5DA0703D0E26B42F00202E263820762
:100FB00005D5DA0703D0E26B42F00402E2630207D0
:100FC00007D501F020022A4303D0E26B42F0080269
:100FD000E263E26B002A33D0800604D5880602D58E
:100FE000204600F012FC20684069E16BC0F38010DD
:100FF000090700D428B3204600F0F9FB20684169B6
:1010000049061AD5416921F040014161606BA0B1E8
:101010002D494163606BFFF7D1F8002810D0606B59
:10102000416BBDE870400847830610D58B060ED58E
:101030002046BDE8704000F0E8BB2046FFF796FF71
:1010400070BD2046FFF792FF0020E06370BD0306ED
:101050002BD50B0629D594F839002128F6D1A068A4
:10106000B0F5805F01D12069B0B1206A411C2162D6
:10107000216800784860E08C401E0004000CE08489
:10108000E4D12068C16821F08001C1602068C16896
:1010900041F04001C16070BD206A0088C0F30800C3
:1010A0005060206A801C2062E5E74006F3D54806C0
:1010B000F1D5D168204621F04001D160202184F88B
:1010C000391000F0D0F870BDDF17000870B50400CB
:1010D00004D094F83900002510B106E0012070BD5D
:1010E00084F83850204600F023F8242084F8390092
:1010F0002068C16821F40051C160204600F0CCFB9B
:101100002068016921F4904101612068416921F062
:101110002A0141612068C16841F40051C160E56362
:10112000202084F8390084F83A00002070BD0000C7
:1011300030B585B0002400940194029403940068B3
:10114000184988422CD11848816941F48041816155
:10115000816901F480410491816941F00401816158
:101160008069124D00F0040004904FF4007000906C
:10117000022001900320039069462846FFF7C8F833
:101180002815CDE90004694628460294FFF7C0F807
:10119000002211462520FFF729FA2520FFF718FA2B
:1011A00005B030BD00380140001002400008014089
:1011B000704700002DE9F843044690F839001F46B7
:1011C00016460D4620284CD1C5B1BEB194F8380062
:1011D000012846D0012084F838004FF00008C4F8F8
:1011E0003C80212084F83900FFF794F9A6848146D9
:1011F000E684A068B0F5805F03D004E00120BDE87C
:10120000F883206928B12E465FF0000584F8388005
:101210000EE00026FAE78021204600F099FBA0B9F5
:10122000AEB116F8010B21684860E08C401EE084E6
:10123000E08C4B464FF0000200970028EBD14FF0B6
:101240004001204600F084FB30B10320D7E735F899
:10125000020BC0F30800E6E7202084F839000020E4
:10126000CDE70220CBE77047FEE7000030B585B040
:1012700000241C480094019402940394816941F075
:1012800020018161816901F020010491816941F0AF
:1012900010018161816901F010010491816941F0BF
:1012A00004018161816901F004010491816941F0C7
:1012B0000801816180690C4D00F008000490002253
:1012C0000F212846FFF720F90F2000900120CDE9DB
:1012D00001040220039069462846FFF719F805B07B
:1012E00030BD0000001002400010014010B58EB06B
:1012F00000240794089409940A940B941C216846CE
:101300000C94FEF73AFF22482049C0E9001441F648
:101310001F41C0E9024104618461FFF767FC08B125
:10132000FEF74AFF4FF48050079007A91848FFF7CF
:101330009FFC08B1FEF740FF1548FFF78EFD08B18E
:10134000FEF73AFF0B940BA911480C94FFF710FC21
:1013500008B1FEF731FF6020CDE9000402940822B5
:1013600069460B480494FFF715FD08B1FEF724FF0A
:101370000C2269460648FFF70DFD08B1FEF71CFF79
:101380000348FFF7E1FC0EB010BD0000000800406C
:10139000140000200C4810B50A4901604FF4E131F7
:1013A0004160002181600C22C160C0E904128161AA
:1013B000C161FFF78BFE002803D0BDE81040FEF7A7
:1013C000FBBE10BD003801405C000020FEE70000BD
:1013D00010B508210648FFF76FFD0C210448FFF700
:1013E0006BFD034800210268D1630068016410BDF1
:1013F000140000202DE9F0474FF4E158394E3A4FE0
:101400000C4605464FF0000AC8F10009404501DDD1
:10141000454605E04D4501DA4D4610E0002D0DDD55
:101420004FF0010211463046FFF76EF8002202210C
:101430003046FFF769F8386805641BE00DDA4FF0B5
:1014400000024FF001013046FFF75EF80122022151
:101450003046FFF759F868420AE000220121304681
:10146000FFF752F8002202213046FFF74DF85046B0
:1014700039680864444501DD444605E04C4501DA1D
:101480004C4612E0002C0FDD4FF001024FF004013A
:101490003046FFF739F8002208213046FFF734F8CC
:1014A0003868C463BDE8F0870DDA4FF000024FF0F2
:1014B00004013046FFF728F8012208213046FFF7E3
:1014C00023F860420AE0002204213046FFF71CF8AE
:1014D000002208213046FFF717F850463968C863E4
:1014E000E0E7000000100140140000207047704742
:1014F0007047FFF715B830B58FB028216846FEF762
:101500003CFE14210AA8FEF738FE01210804CDE9AB
:1015100000100024029402250491CDE907504FF4F5
:10152000E01009906846FFF77FF90F20CDE90A0522
:101530006802CDE90C4002210AA80E94FFF788F852
:101540000FB030BD70470000F0B502681C4B1D4D58
:101550001D4E1E4F1E4C4FF0804C984209D0A042A9
:1015600007D0604505D0A84203D0B04201D0B842B0
:1015700004D122F0700E4A6842EA0E02984209D065
:10158000A04207D0604505D0A84203D0B04201D0A8
:10159000B84203D122F44075CA682A434D6922F04B
:1015A00080022A4302608A68C2620A6882629842A4
:1015B00001D0A04201D10969016301214161F0BD5F
:1015C000002C01400004004000080040000C0040D6
:1015D0000034014010B501F01F030121046A994055
:1015E0008C430462016A9A401143016210BD10B538
:1015F000846842EA032224F47F440A43224382603F
:1016000010BD826822F070020A4342F00701816037
:1016100070470000F0B5026A22F001020262036A1C
:1016200042688469124E24F073050C682C4323F041
:1016300002058B682B430D4DA84201D0B04205D165
:1016400023F00807CB683B4323F00403A84201D0F2
:10165000B04205D14D6922F4407215438A692A438C
:1016600042608461496841630362F0BD002C01401F
:1016700000340140F0B5026A22F010020262026AF0
:10168000436884690D6824F4E64444EA05248D68BF
:1016900022F0200242EA05120F4D104EA84201D05E
:1016A000B04206D1CF6822F0800242EA071222F04F
:1016B0004002A84201D0B04207D14D6923F44063F3
:1016C00043EA85038D6943EA850343608461496881
:1016D00081630262F0BD0000002C01400034014033
:1016E000F0B5026A22F480720262026A4368C46939
:1016F00022F4007224F073050C68124E2C438D689E
:1017000042EA05220E4DA84201D0B04206D1CF6870
:1017100022F4006242EA072222F48062A84201D049
:10172000B04207D14D6923F4405343EA05138D6954
:1017300043EA05134360C4614968C1630262F0BDB6
:10174000002C01400034014030B5026A22F480527E
:101750000262046A4268C3690D6823F4E64343EAFF
:1017600005238D6824F4005444EA0534084DA8424A
:1017700002D0084DA84204D14D6922F4804242EAC9
:1017800085124260C36149680164046230BD000093
:10179000002C01400034014010B5036A046A24F0B3
:1017A00001040462846924F0F00444EA021423F082
:1017B0000A020A438461026210BD10B5036A23F075
:1017C000100303628369046A23F4704343EA02321C
:1017D00024F0A00343EA01118261016210BD10B53B
:1017E000406A0021C185C184FFF7C0FB10BD0168BC
:1017F000CA6822F49072CA6001684A6922F0010244
:101800004A61202180F83A10704710B590F83A10DC
:10181000222901D0022010BD82684FF480539A42E1
:1018200001D1016921B1816A9A421BD04AB10AE013
:101830000268816A5268C2F308020A80816A891CC0
:1018400008E0026972B10268526802F07F020A7011
:10185000816A491C8162C18D491E0904090CC18538
:1018600003D016E002685268F1E70168CA6822F006
:101870002002CA600168CA6822F48072CA600168E6
:101880004A6922F001024A61202180F83A10FFF7EC
:101890008FFC002010BD000070B50446006801698F
:1018A000E26821F44051114301612169A0680843B5
:1018B000616908432168CA6841F20C639A43024394
:1018C000CA6020684169A26921F4407111434161F5
:1018D0001E492068884202D1FEF760FF01E0FEF752
:1018E0004DFF00EBC00101EB001260686421800035
:1018F000B2FBF0F3B3FBF1F36FF018067343B2FBE6
:10190000F0F5B2FBF0F605EB8305322303EB05158A
:10191000B5FBF1F5B6FBF1F605F0F00505EB0615A4
:10192000B2FBF0F6B2FBF0F0B0FBF1F06FF0180292
:10193000504306EB800003EB0010B0FBF1F0216890
:1019400000F00F002844886070BD0000003801409E
:101950002DE9F041984617460E460446069D1DE0C7
:10196000681C1BD02DB1FEF7D5FDA0EB0800A842E6
:1019700014D92068C16821F4D071C1602068416920
:1019800021F001014161202084F8390084F83A00F7
:10199000002084F838000320BDE8F081206800684A
:1019A00036EA000004D00020B842D9D00020F3E786
:1019B0000120F9E70148FFF7DBBA00005C000020D6
:1019C000FEE700000FB4054B10B503A9044A0298C6
:1019D00000F027F810BC5DF814FB0000511A000855
:1019E000100000200907090E002804DB00F1E020A8
:1019F00080F80014704700F00F0000F1E02080F83C
:101A0000141D704702E008C8121F08C1002AFAD14D
:101A100070477047002001E001C1121F002AFBD16E
:101A200070472DE9F0411E4617460446002508E0A0
:101A3000252802D114F8010F30B13946B047641C93
:101A40006D1C20780028F3D12846BDE8F081000005
:101A500013B54FF47A73012269460248FFF7AAFBD7
:101A600001201CBD5C000020FEF762FDFFF743FD76
:101A7000FFF7FCFBFFF78EFCFFF738FC27A0FFF712
:101A8000A1FF2AA0FFF79EFF6420FEF72FFCFFF7BF
:101A90009FFC4FF46164650066424FF4FA674FEAB9
:101AA000460826A0FFF78EFF20462146FFF7A2FC3E
:101AB0003846FEF71BFC25A0FFF784FF2846294681
:101AC000FFF798FC3846FEF711FC24A0FFF77AFFD9
:101AD00000210846FFF78EFC3846FEF707FC22A0DF
:101AE000FFF770FF30463146FFF784FC3846FEF7BB
:101AF000FDFB21A0FFF766FF40464146FFF77AFC59
:101B00003846FEF7F3FB15A0FFF75CFF00210846FF
:101B1000FFF770FC3846FEF7E9FBC2E732302D6371
:101B20006F72652D626F6172640D0A00B5E7BBFAD2
:101B3000B2E2CAD4CAB5D1E90D0A0000B5E7BBFAD2
:101B4000D5FDD7AA353025250D0A0000B5E7BBFA2B
:101B5000D5FDD7AA31303025250D0A00B5E7BBFAEF
:101B6000CDA3D6B90D0A0000B5E7BBFAB7B4D7AA22
:101B7000353025250D0A0000B5E7BBFAB7B4D7AA62
:101B800031303025250D0A00000000000000000063
:101B90000102030406070809000000000102030413
:101BA000C01B00080000002014000000041A0008F8
:101BB000D41B0008140000208C040000141A000834
:101BC0000100000010000000000000000024F400EC
:041BD0000000000011
:0400000508000131BD
:00000001FF
